{
  "_format": "hh-sol-artifact-1",
  "contractName": "AllanCoin",
  "sourceName": "contracts/AllanCoin.sol",
  "abi": [
    {
      "inputs": [],
      "stateMutability": "nonpayable",
      "type": "constructor"
    },
    {
      "anonymous": false,
      "inputs": [
        {
          "indexed": true,
          "internalType": "address",
          "name": "owner",
          "type": "address"
        },
        {
          "indexed": true,
          "internalType": "address",
          "name": "spender",
          "type": "address"
        },
        {
          "indexed": false,
          "internalType": "uint256",
          "name": "value",
          "type": "uint256"
        }
      ],
      "name": "Approval",
      "type": "event"
    },
    {
      "anonymous": false,
      "inputs": [
        {
          "indexed": true,
          "internalType": "address",
          "name": "charity",
          "type": "address"
        }
      ],
      "name": "CharityAdded",
      "type": "event"
    },
    {
      "anonymous": false,
      "inputs": [
        {
          "indexed": true,
          "internalType": "address",
          "name": "charity",
          "type": "address"
        }
      ],
      "name": "CharitySelected",
      "type": "event"
    },
    {
      "anonymous": false,
      "inputs": [
        {
          "indexed": true,
          "internalType": "address",
          "name": "voter",
          "type": "address"
        },
        {
          "indexed": true,
          "internalType": "address",
          "name": "charity",
          "type": "address"
        }
      ],
      "name": "CharityVoted",
      "type": "event"
    },
    {
      "anonymous": false,
      "inputs": [
        {
          "indexed": true,
          "internalType": "address",
          "name": "from",
          "type": "address"
        },
        {
          "indexed": true,
          "internalType": "address",
          "name": "charity",
          "type": "address"
        },
        {
          "indexed": false,
          "internalType": "uint256",
          "name": "value",
          "type": "uint256"
        }
      ],
      "name": "Donation",
      "type": "event"
    },
    {
      "anonymous": false,
      "inputs": [
        {
          "indexed": true,
          "internalType": "address",
          "name": "from",
          "type": "address"
        },
        {
          "indexed": true,
          "internalType": "address",
          "name": "to",
          "type": "address"
        },
        {
          "indexed": false,
          "internalType": "uint256",
          "name": "value",
          "type": "uint256"
        }
      ],
      "name": "Transfer",
      "type": "event"
    },
    {
      "inputs": [
        {
          "internalType": "address",
          "name": "charityAddress",
          "type": "address"
        }
      ],
      "name": "addCharity",
      "outputs": [],
      "stateMutability": "nonpayable",
      "type": "function"
    },
    {
      "inputs": [
        {
          "internalType": "address",
          "name": "owner",
          "type": "address"
        },
        {
          "internalType": "address",
          "name": "spender",
          "type": "address"
        }
      ],
      "name": "allowance",
      "outputs": [
        {
          "internalType": "uint256",
          "name": "remaining",
          "type": "uint256"
        }
      ],
      "stateMutability": "view",
      "type": "function"
    },
    {
      "inputs": [
        {
          "internalType": "address",
          "name": "spender",
          "type": "address"
        },
        {
          "internalType": "uint256",
          "name": "value",
          "type": "uint256"
        }
      ],
      "name": "approve",
      "outputs": [
        {
          "internalType": "bool",
          "name": "success",
          "type": "bool"
        }
      ],
      "stateMutability": "nonpayable",
      "type": "function"
    },
    {
      "inputs": [
        {
          "internalType": "address",
          "name": "owner",
          "type": "address"
        }
      ],
      "name": "balanceOf",
      "outputs": [
        {
          "internalType": "uint256",
          "name": "balance",
          "type": "uint256"
        }
      ],
      "stateMutability": "view",
      "type": "function"
    },
    {
      "inputs": [
        {
          "internalType": "uint256",
          "name": "",
          "type": "uint256"
        }
      ],
      "name": "charities",
      "outputs": [
        {
          "internalType": "address",
          "name": "charityAddress",
          "type": "address"
        },
        {
          "internalType": "uint256",
          "name": "votes",
          "type": "uint256"
        }
      ],
      "stateMutability": "view",
      "type": "function"
    },
    {
      "inputs": [],
      "name": "currentCharity",
      "outputs": [
        {
          "internalType": "address",
          "name": "",
          "type": "address"
        }
      ],
      "stateMutability": "view",
      "type": "function"
    },
    {
      "inputs": [],
      "name": "decimals",
      "outputs": [
        {
          "internalType": "uint8",
          "name": "",
          "type": "uint8"
        }
      ],
      "stateMutability": "view",
      "type": "function"
    },
    {
      "inputs": [],
      "name": "donationPercentage",
      "outputs": [
        {
          "internalType": "uint256",
          "name": "",
          "type": "uint256"
        }
      ],
      "stateMutability": "view",
      "type": "function"
    },
    {
      "inputs": [
        {
          "internalType": "address",
          "name": "",
          "type": "address"
        }
      ],
      "name": "hasVoted",
      "outputs": [
        {
          "internalType": "bool",
          "name": "",
          "type": "bool"
        }
      ],
      "stateMutability": "view",
      "type": "function"
    },
    {
      "inputs": [],
      "name": "name",
      "outputs": [
        {
          "internalType": "string",
          "name": "",
          "type": "string"
        }
      ],
      "stateMutability": "view",
      "type": "function"
    },
    {
      "inputs": [],
      "name": "selectCharity",
      "outputs": [],
      "stateMutability": "nonpayable",
      "type": "function"
    },
    {
      "inputs": [
        {
          "internalType": "uint256",
          "name": "percentage",
          "type": "uint256"
        }
      ],
      "name": "setDonationPercentage",
      "outputs": [],
      "stateMutability": "nonpayable",
      "type": "function"
    },
    {
      "inputs": [],
      "name": "symbol",
      "outputs": [
        {
          "internalType": "string",
          "name": "",
          "type": "string"
        }
      ],
      "stateMutability": "view",
      "type": "function"
    },
    {
      "inputs": [],
      "name": "totalSupply",
      "outputs": [
        {
          "internalType": "uint256",
          "name": "",
          "type": "uint256"
        }
      ],
      "stateMutability": "view",
      "type": "function"
    },
    {
      "inputs": [
        {
          "internalType": "address",
          "name": "to",
          "type": "address"
        },
        {
          "internalType": "uint256",
          "name": "value",
          "type": "uint256"
        }
      ],
      "name": "transfer",
      "outputs": [
        {
          "internalType": "bool",
          "name": "success",
          "type": "bool"
        }
      ],
      "stateMutability": "nonpayable",
      "type": "function"
    },
    {
      "inputs": [
        {
          "internalType": "address",
          "name": "from",
          "type": "address"
        },
        {
          "internalType": "address",
          "name": "to",
          "type": "address"
        },
        {
          "internalType": "uint256",
          "name": "value",
          "type": "uint256"
        }
      ],
      "name": "transferFrom",
      "outputs": [
        {
          "internalType": "bool",
          "name": "success",
          "type": "bool"
        }
      ],
      "stateMutability": "nonpayable",
      "type": "function"
    },
    {
      "inputs": [
        {
          "internalType": "uint256",
          "name": "charityIndex",
          "type": "uint256"
        }
      ],
      "name": "voteForCharity",
      "outputs": [],
      "stateMutability": "nonpayable",
      "type": "function"
    },
    {
      "inputs": [],
      "name": "votingDuration",
      "outputs": [
        {
          "internalType": "uint256",
          "name": "",
          "type": "uint256"
        }
      ],
      "stateMutability": "view",
      "type": "function"
    },
    {
      "inputs": [],
      "name": "votingEndTime",
      "outputs": [
        {
          "internalType": "uint256",
          "name": "",
          "type": "uint256"
        }
      ],
      "stateMutability": "view",
      "type": "function"
    }
  ],
  "bytecode": "0x60806040526040518060400160405280600981526020017f416c6c616e436f696e0000000000000000000000000000000000000000000000815250600090816200004a9190620003d4565b506040518060400160405280600381526020017f414c43000000000000000000000000000000000000000000000000000000000081525060019081620000919190620003d4565b506012600260006101000a81548160ff021916908360ff160217905550600260009054906101000a900460ff16600a620000cc91906200064b565b6103e8620000db91906200069c565b600355600160065562093a80600955348015620000f757600080fd5b50600354600460003373ffffffffffffffffffffffffffffffffffffffff1673ffffffffffffffffffffffffffffffffffffffff16815260200190815260200160002081905550600954426200014e9190620006e7565b60088190555062000722565b600081519050919050565b7f4e487b7100000000000000000000000000000000000000000000000000000000600052604160045260246000fd5b7f4e487b7100000000000000000000000000000000000000000000000000000000600052602260045260246000fd5b60006002820490506001821680620001dc57607f821691505b602082108103620001f257620001f162000194565b5b50919050565b60008190508160005260206000209050919050565b60006020601f8301049050919050565b600082821b905092915050565b6000600883026200025c7fffffffffffffffffffffffffffffffffffffffffffffffffffffffffffffffff826200021d565b6200026886836200021d565b95508019841693508086168417925050509392505050565b6000819050919050565b6000819050919050565b6000620002b5620002af620002a98462000280565b6200028a565b62000280565b9050919050565b6000819050919050565b620002d18362000294565b620002e9620002e082620002bc565b8484546200022a565b825550505050565b600090565b62000300620002f1565b6200030d818484620002c6565b505050565b5b81811015620003355762000329600082620002f6565b60018101905062000313565b5050565b601f82111562000384576200034e81620001f8565b62000359846200020d565b8101602085101562000369578190505b6200038162000378856200020d565b83018262000312565b50505b505050565b600082821c905092915050565b6000620003a96000198460080262000389565b1980831691505092915050565b6000620003c4838362000396565b9150826002028217905092915050565b620003df826200015a565b67ffffffffffffffff811115620003fb57620003fa62000165565b5b620004078254620001c3565b6200041482828562000339565b600060209050601f8311600181146200044c576000841562000437578287015190505b620004438582620003b6565b865550620004b3565b601f1984166200045c86620001f8565b60005b8281101562000486578489015182556001820191506020850194506020810190506200045f565b86831015620004a65784890151620004a2601f89168262000396565b8355505b6001600288020188555050505b505050505050565b7f4e487b7100000000000000000000000000000000000000000000000000000000600052601160045260246000fd5b60008160011c9050919050565b6000808291508390505b60018511156200054957808604811115620005215762000520620004bb565b5b6001851615620005315780820291505b80810290506200054185620004ea565b945062000501565b94509492505050565b60008262000564576001905062000637565b8162000574576000905062000637565b81600181146200058d57600281146200059857620005ce565b600191505062000637565b60ff841115620005ad57620005ac620004bb565b5b8360020a915084821115620005c757620005c6620004bb565b5b5062000637565b5060208310610133831016604e8410600b8410161715620006085782820a905083811115620006025762000601620004bb565b5b62000637565b620006178484846001620004f7565b92509050818404811115620006315762000630620004bb565b5b81810290505b9392505050565b600060ff82169050919050565b6000620006588262000280565b915062000665836200063e565b9250620006947fffffffffffffffffffffffffffffffffffffffffffffffffffffffffffffffff848462000552565b905092915050565b6000620006a98262000280565b9150620006b68362000280565b9250828202620006c68162000280565b91508282048414831517620006e057620006df620004bb565b5b5092915050565b6000620006f48262000280565b9150620007018362000280565b92508282019050808211156200071c576200071b620004bb565b5b92915050565b611b6880620007326000396000f3fe608060405234801561001057600080fd5b50600436106101215760003560e01c806370a08231116100ad578063b459bc9711610071578063b459bc9714610320578063c16cc8101461033c578063d49fdd431461035a578063dd62ed3e14610364578063fb709d2e1461039457610121565b806370a082311461026857806378b14f0a1461029857806395d89b41146102b4578063a2916caf146102d2578063a9059cbb146102f057610121565b806318160ddd116100f457806318160ddd146101c25780631ea736e0146101e057806323b872dd146101fe578063313ce5671461022e57806367b32bc91461024c57610121565b806306fdde0314610126578063095ea7b31461014457806309eef43e14610174578063132002fc146101a4575b600080fd5b61012e6103c5565b60405161013b919061147c565b60405180910390f35b61015e60048036038101906101599190611537565b610453565b60405161016b9190611592565b60405180910390f35b61018e600480360381019061018991906115ad565b610545565b60405161019b9190611592565b60405180910390f35b6101ac610565565b6040516101b991906115e9565b60405180910390f35b6101ca61056b565b6040516101d791906115e9565b60405180910390f35b6101e8610571565b6040516101f591906115e9565b60405180910390f35b61021860048036038101906102139190611604565b610577565b6040516102259190611592565b60405180910390f35b6102366108ee565b6040516102439190611673565b60405180910390f35b6102666004803603810190610261919061168e565b610901565b005b610282600480360381019061027d91906115ad565b610b2c565b60405161028f91906115e9565b60405180910390f35b6102b260048036038101906102ad91906115ad565b610b75565b005b6102bc610c65565b6040516102c9919061147c565b60405180910390f35b6102da610cf3565b6040516102e791906116ca565b60405180910390f35b61030a60048036038101906103059190611537565b610d19565b6040516103179190611592565b60405180910390f35b61033a6004803603810190610335919061168e565b610fb0565b005b610344610fba565b60405161035191906115e9565b60405180910390f35b610362610fc0565b005b61037e600480360381019061037991906116e5565b6112e1565b60405161038b91906115e9565b60405180910390f35b6103ae60048036038101906103a9919061168e565b611368565b6040516103bc929190611725565b60405180910390f35b600080546103d29061177d565b80601f01602080910402602001604051908101604052809291908181526020018280546103fe9061177d565b801561044b5780601f106104205761010080835404028352916020019161044b565b820191906000526020600020905b81548152906001019060200180831161042e57829003601f168201915b505050505081565b600081600560003373ffffffffffffffffffffffffffffffffffffffff1673ffffffffffffffffffffffffffffffffffffffff16815260200190815260200160002060008573ffffffffffffffffffffffffffffffffffffffff1673ffffffffffffffffffffffffffffffffffffffff168152602001908152602001600020819055508273ffffffffffffffffffffffffffffffffffffffff163373ffffffffffffffffffffffffffffffffffffffff167f8c5be1e5ebec7d5bd14f71427d1e84f3dd0314c0f7b2291e5b200ac8c7c3b9258460405161053391906115e9565b60405180910390a36001905092915050565b600b6020528060005260406000206000915054906101000a900460ff1681565b60095481565b60035481565b60085481565b60008161058385610b2c565b10156105c4576040517f08c379a00000000000000000000000000000000000000000000000000000000081526004016105bb906117fa565b60405180910390fd5b816105cf85336112e1565b1015610610576040517f08c379a000000000000000000000000000000000000000000000000000000000815260040161060790611866565b60405180910390fd5b600060646006548461062291906118b5565b61062c9190611926565b90506000818461063c9190611957565b905083600460008873ffffffffffffffffffffffffffffffffffffffff1673ffffffffffffffffffffffffffffffffffffffff168152602001908152602001600020600082825461068d9190611957565b9250508190555083600560008873ffffffffffffffffffffffffffffffffffffffff1673ffffffffffffffffffffffffffffffffffffffff16815260200190815260200160002060003373ffffffffffffffffffffffffffffffffffffffff1673ffffffffffffffffffffffffffffffffffffffff16815260200190815260200160002060008282546107209190611957565b9250508190555080600460008773ffffffffffffffffffffffffffffffffffffffff1673ffffffffffffffffffffffffffffffffffffffff1681526020019081526020016000206000828254610776919061198b565b925050819055508160046000600760009054906101000a900473ffffffffffffffffffffffffffffffffffffffff1673ffffffffffffffffffffffffffffffffffffffff1673ffffffffffffffffffffffffffffffffffffffff16815260200190815260200160002060008282546107ee919061198b565b925050819055508473ffffffffffffffffffffffffffffffffffffffff168673ffffffffffffffffffffffffffffffffffffffff167fddf252ad1be2c89b69c2b068fc378daa952ba7f163c4a11628f55a4df523b3ef8360405161085291906115e9565b60405180910390a3600760009054906101000a900473ffffffffffffffffffffffffffffffffffffffff1673ffffffffffffffffffffffffffffffffffffffff168673ffffffffffffffffffffffffffffffffffffffff167f597440e65d8cdea1298e19df50e115bda25508180452d87a7f4f99195fb843a4846040516108d991906115e9565b60405180910390a36001925050509392505050565b600260009054906101000a900460ff1681565b6008544210610945576040517f08c379a000000000000000000000000000000000000000000000000000000000815260040161093c90611a0b565b60405180910390fd5b600b60003373ffffffffffffffffffffffffffffffffffffffff1673ffffffffffffffffffffffffffffffffffffffff16815260200190815260200160002060009054906101000a900460ff16156109d2576040517f08c379a00000000000000000000000000000000000000000000000000000000081526004016109c990611a77565b60405180910390fd5b6000600a82815481106109e8576109e7611a97565b5b90600052602060002090600202019050600460003373ffffffffffffffffffffffffffffffffffffffff1673ffffffffffffffffffffffffffffffffffffffff16815260200190815260200160002054816001016000828254610a4b919061198b565b925050819055506001600b60003373ffffffffffffffffffffffffffffffffffffffff1673ffffffffffffffffffffffffffffffffffffffff16815260200190815260200160002060006101000a81548160ff0219169083151502179055508060000160009054906101000a900473ffffffffffffffffffffffffffffffffffffffff1673ffffffffffffffffffffffffffffffffffffffff163373ffffffffffffffffffffffffffffffffffffffff167fc51251330e5b0adf874b1562168335744f986f7e222c39888ec3a8bd8855ebe960405160405180910390a35050565b6000600460008373ffffffffffffffffffffffffffffffffffffffff1673ffffffffffffffffffffffffffffffffffffffff168152602001908152602001600020549050919050565b600a60405180604001604052808373ffffffffffffffffffffffffffffffffffffffff1681526020016000815250908060018154018082558091505060019003906000526020600020906002020160009091909190915060008201518160000160006101000a81548173ffffffffffffffffffffffffffffffffffffffff021916908373ffffffffffffffffffffffffffffffffffffffff1602179055506020820151816001015550508073ffffffffffffffffffffffffffffffffffffffff167fc17dc19a503d796a336a016f10743118db2bdadb16ac4c19aff016075609863560405160405180910390a250565b60018054610c729061177d565b80601f0160208091040260200160405190810160405280929190818152602001828054610c9e9061177d565b8015610ceb5780601f10610cc057610100808354040283529160200191610ceb565b820191906000526020600020905b815481529060010190602001808311610cce57829003601f168201915b505050505081565b600760009054906101000a900473ffffffffffffffffffffffffffffffffffffffff1681565b600081610d2533610b2c565b1015610d66576040517f08c379a0000000000000000000000000000000000000000000000000000000008152600401610d5d906117fa565b60405180910390fd5b6000606460065484610d7891906118b5565b610d829190611926565b905060008184610d929190611957565b905083600460003373ffffffffffffffffffffffffffffffffffffffff1673ffffffffffffffffffffffffffffffffffffffff1681526020019081526020016000206000828254610de39190611957565b9250508190555080600460008773ffffffffffffffffffffffffffffffffffffffff1673ffffffffffffffffffffffffffffffffffffffff1681526020019081526020016000206000828254610e39919061198b565b925050819055508160046000600760009054906101000a900473ffffffffffffffffffffffffffffffffffffffff1673ffffffffffffffffffffffffffffffffffffffff1673ffffffffffffffffffffffffffffffffffffffff1681526020019081526020016000206000828254610eb1919061198b565b925050819055508473ffffffffffffffffffffffffffffffffffffffff163373ffffffffffffffffffffffffffffffffffffffff167fddf252ad1be2c89b69c2b068fc378daa952ba7f163c4a11628f55a4df523b3ef83604051610f1591906115e9565b60405180910390a3600760009054906101000a900473ffffffffffffffffffffffffffffffffffffffff1673ffffffffffffffffffffffffffffffffffffffff163373ffffffffffffffffffffffffffffffffffffffff167f597440e65d8cdea1298e19df50e115bda25508180452d87a7f4f99195fb843a484604051610f9c91906115e9565b60405180910390a360019250505092915050565b8060068190555050565b60065481565b600854421015611005576040517f08c379a0000000000000000000000000000000000000000000000000000000008152600401610ffc90611b12565b60405180910390fd5b61100d6113bc565b600080600090505b600a805490508110156111145781600a828154811061103757611036611a97565b5b906000526020600020906002020160010154111561110757600a818154811061106357611062611a97565b5b9060005260206000209060020201600101549150600a818154811061108b5761108a611a97565b5b90600052602060002090600202016040518060400160405290816000820160009054906101000a900473ffffffffffffffffffffffffffffffffffffffff1673ffffffffffffffffffffffffffffffffffffffff1673ffffffffffffffffffffffffffffffffffffffff16815260200160018201548152505092505b8080600101915050611015565b508160000151600760006101000a81548173ffffffffffffffffffffffffffffffffffffffff021916908373ffffffffffffffffffffffffffffffffffffffff160217905550600760009054906101000a900473ffffffffffffffffffffffffffffffffffffffff1673ffffffffffffffffffffffffffffffffffffffff167fd320781c7a8e1c092ffb9ae4b9f6482c75c70713157743883177592dd918f24060405160405180910390a2600954426111cd919061198b565b60088190555060005b600a8054905081101561121b576000600a82815481106111f9576111f8611a97565b5b90600052602060002090600202016001018190555080806001019150506111d6565b5060005b600a805490508110156112dc576000600a828154811061124257611241611a97565b5b906000526020600020906002020160000160009054906101000a900473ffffffffffffffffffffffffffffffffffffffff1690506000600b60008373ffffffffffffffffffffffffffffffffffffffff1673ffffffffffffffffffffffffffffffffffffffff16815260200190815260200160002060006101000a81548160ff02191690831515021790555050808060010191505061121f565b505050565b6000600560008473ffffffffffffffffffffffffffffffffffffffff1673ffffffffffffffffffffffffffffffffffffffff16815260200190815260200160002060008373ffffffffffffffffffffffffffffffffffffffff1673ffffffffffffffffffffffffffffffffffffffff16815260200190815260200160002054905092915050565b600a818154811061137857600080fd5b90600052602060002090600202016000915090508060000160009054906101000a900473ffffffffffffffffffffffffffffffffffffffff16908060010154905082565b6040518060400160405280600073ffffffffffffffffffffffffffffffffffffffff168152602001600081525090565b600081519050919050565b600082825260208201905092915050565b60005b8381101561142657808201518184015260208101905061140b565b60008484015250505050565b6000601f19601f8301169050919050565b600061144e826113ec565b61145881856113f7565b9350611468818560208601611408565b61147181611432565b840191505092915050565b600060208201905081810360008301526114968184611443565b905092915050565b600080fd5b600073ffffffffffffffffffffffffffffffffffffffff82169050919050565b60006114ce826114a3565b9050919050565b6114de816114c3565b81146114e957600080fd5b50565b6000813590506114fb816114d5565b92915050565b6000819050919050565b61151481611501565b811461151f57600080fd5b50565b6000813590506115318161150b565b92915050565b6000806040838503121561154e5761154d61149e565b5b600061155c858286016114ec565b925050602061156d85828601611522565b9150509250929050565b60008115159050919050565b61158c81611577565b82525050565b60006020820190506115a76000830184611583565b92915050565b6000602082840312156115c3576115c261149e565b5b60006115d1848285016114ec565b91505092915050565b6115e381611501565b82525050565b60006020820190506115fe60008301846115da565b92915050565b60008060006060848603121561161d5761161c61149e565b5b600061162b868287016114ec565b935050602061163c868287016114ec565b925050604061164d86828701611522565b9150509250925092565b600060ff82169050919050565b61166d81611657565b82525050565b60006020820190506116886000830184611664565b92915050565b6000602082840312156116a4576116a361149e565b5b60006116b284828501611522565b91505092915050565b6116c4816114c3565b82525050565b60006020820190506116df60008301846116bb565b92915050565b600080604083850312156116fc576116fb61149e565b5b600061170a858286016114ec565b925050602061171b858286016114ec565b9150509250929050565b600060408201905061173a60008301856116bb565b61174760208301846115da565b9392505050565b7f4e487b7100000000000000000000000000000000000000000000000000000000600052602260045260246000fd5b6000600282049050600182168061179557607f821691505b6020821081036117a8576117a761174e565b5b50919050565b7f496e73756666696369656e742062616c616e6365000000000000000000000000600082015250565b60006117e46014836113f7565b91506117ef826117ae565b602082019050919050565b60006020820190508181036000830152611813816117d7565b9050919050565b7f496e73756666696369656e7420616c6c6f77616e636500000000000000000000600082015250565b60006118506016836113f7565b915061185b8261181a565b602082019050919050565b6000602082019050818103600083015261187f81611843565b9050919050565b7f4e487b7100000000000000000000000000000000000000000000000000000000600052601160045260246000fd5b60006118c082611501565b91506118cb83611501565b92508282026118d981611501565b915082820484148315176118f0576118ef611886565b5b5092915050565b7f4e487b7100000000000000000000000000000000000000000000000000000000600052601260045260246000fd5b600061193182611501565b915061193c83611501565b92508261194c5761194b6118f7565b5b828204905092915050565b600061196282611501565b915061196d83611501565b925082820390508181111561198557611984611886565b5b92915050565b600061199682611501565b91506119a183611501565b92508282019050808211156119b9576119b8611886565b5b92915050565b7f566f74696e6720706572696f642068617320656e646564000000000000000000600082015250565b60006119f56017836113f7565b9150611a00826119bf565b602082019050919050565b60006020820190508181036000830152611a24816119e8565b9050919050565b7f416c726561647920766f74656420696e207468697320706572696f6400000000600082015250565b6000611a61601c836113f7565b9150611a6c82611a2b565b602082019050919050565b60006020820190508181036000830152611a9081611a54565b9050919050565b7f4e487b7100000000000000000000000000000000000000000000000000000000600052603260045260246000fd5b7f566f74696e6720706572696f6420686173206e6f7420656e6465640000000000600082015250565b6000611afc601b836113f7565b9150611b0782611ac6565b602082019050919050565b60006020820190508181036000830152611b2b81611aef565b905091905056fea2646970667358221220b4d81e635f9cac605c88c631c8cc4e42928b270c10aca2bf4317341c5308da4a64736f6c63430008180033",
  "linkReferences": {},
  "deployedLinkReferences": {}
}